{
  "_format": "hh3-artifact-1",
  "contractName": "SupportToken",
  "sourceName": "contracts/SupportToken.sol",
  "abi": [
    {
      "inputs": [
        {
          "internalType": "address",
          "name": "_initialOwner",
          "type": "address"
        },
        {
          "internalType": "string",
          "name": "_projectName",
          "type": "string"
        },
        {
          "internalType": "string",
          "name": "_projectSymbol",
          "type": "string"
        },
        {
          "internalType": "address",
          "name": "_priceFeed",
          "type": "address"
        },
        {
          "internalType": "uint128[]",
          "name": "_tierPrices",
          "type": "uint128[]"
        },
        {
          "internalType": "uint256",
          "name": "_saleStart",
          "type": "uint256"
        },
        {
          "internalType": "string",
          "name": "_logo",
          "type": "string"
        },
        {
          "internalType": "address",
          "name": "_renderer",
          "type": "address"
        },
        {
          "internalType": "contract ISubscriptionHook",
          "name": "_hook",
          "type": "address"
        }
      ],
      "stateMutability": "nonpayable",
      "type": "constructor"
    },
    {
      "inputs": [
        {
          "internalType": "address",
          "name": "sender",
          "type": "address"
        },
        {
          "internalType": "uint256",
          "name": "tokenId",
          "type": "uint256"
        },
        {
          "internalType": "address",
          "name": "owner",
          "type": "address"
        }
      ],
      "name": "ERC721IncorrectOwner",
      "type": "error"
    },
    {
      "inputs": [
        {
          "internalType": "address",
          "name": "operator",
          "type": "address"
        },
        {
          "internalType": "uint256",
          "name": "tokenId",
          "type": "uint256"
        }
      ],
      "name": "ERC721InsufficientApproval",
      "type": "error"
    },
    {
      "inputs": [
        {
          "internalType": "address",
          "name": "approver",
          "type": "address"
        }
      ],
      "name": "ERC721InvalidApprover",
      "type": "error"
    },
    {
      "inputs": [
        {
          "internalType": "address",
          "name": "operator",
          "type": "address"
        }
      ],
      "name": "ERC721InvalidOperator",
      "type": "error"
    },
    {
      "inputs": [
        {
          "internalType": "address",
          "name": "owner",
          "type": "address"
        }
      ],
      "name": "ERC721InvalidOwner",
      "type": "error"
    },
    {
      "inputs": [
        {
          "internalType": "address",
          "name": "receiver",
          "type": "address"
        }
      ],
      "name": "ERC721InvalidReceiver",
      "type": "error"
    },
    {
      "inputs": [
        {
          "internalType": "address",
          "name": "sender",
          "type": "address"
        }
      ],
      "name": "ERC721InvalidSender",
      "type": "error"
    },
    {
      "inputs": [
        {
          "internalType": "uint256",
          "name": "tokenId",
          "type": "uint256"
        }
      ],
      "name": "ERC721NonexistentToken",
      "type": "error"
    },
    {
      "inputs": [],
      "name": "InsufficientPayment",
      "type": "error"
    },
    {
      "inputs": [],
      "name": "InvalidDuration",
      "type": "error"
    },
    {
      "inputs": [],
      "name": "InvalidPrice",
      "type": "error"
    },
    {
      "inputs": [],
      "name": "InvalidPriceFeed",
      "type": "error"
    },
    {
      "inputs": [],
      "name": "InvalidRecipient",
      "type": "error"
    },
    {
      "inputs": [],
      "name": "InvalidTier",
      "type": "error"
    },
    {
      "inputs": [],
      "name": "NoTokenForAccount",
      "type": "error"
    },
    {
      "inputs": [],
      "name": "NothingToWithdraw",
      "type": "error"
    },
    {
      "inputs": [],
      "name": "OneTokenPerWallet",
      "type": "error"
    },
    {
      "inputs": [
        {
          "internalType": "address",
          "name": "owner",
          "type": "address"
        }
      ],
      "name": "OwnableInvalidOwner",
      "type": "error"
    },
    {
      "inputs": [
        {
          "internalType": "address",
          "name": "account",
          "type": "address"
        }
      ],
      "name": "OwnableUnauthorizedAccount",
      "type": "error"
    },
    {
      "inputs": [],
      "name": "SaleAlreadyStarted",
      "type": "error"
    },
    {
      "inputs": [],
      "name": "SaleNotStarted",
      "type": "error"
    },
    {
      "inputs": [],
      "name": "StalePrice",
      "type": "error"
    },
    {
      "inputs": [],
      "name": "TierChangeForbidden",
      "type": "error"
    },
    {
      "inputs": [],
      "name": "TransferFailed",
      "type": "error"
    },
    {
      "anonymous": false,
      "inputs": [
        {
          "indexed": true,
          "internalType": "address",
          "name": "owner",
          "type": "address"
        },
        {
          "indexed": true,
          "internalType": "address",
          "name": "approved",
          "type": "address"
        },
        {
          "indexed": true,
          "internalType": "uint256",
          "name": "tokenId",
          "type": "uint256"
        }
      ],
      "name": "Approval",
      "type": "event"
    },
    {
      "anonymous": false,
      "inputs": [
        {
          "indexed": true,
          "internalType": "address",
          "name": "owner",
          "type": "address"
        },
        {
          "indexed": true,
          "internalType": "address",
          "name": "operator",
          "type": "address"
        },
        {
          "indexed": false,
          "internalType": "bool",
          "name": "approved",
          "type": "bool"
        }
      ],
      "name": "ApprovalForAll",
      "type": "event"
    },
    {
      "anonymous": false,
      "inputs": [
        {
          "indexed": false,
          "internalType": "address",
          "name": "hook",
          "type": "address"
        }
      ],
      "name": "HookUpdated",
      "type": "event"
    },
    {
      "anonymous": false,
      "inputs": [],
      "name": "LogoUpdated",
      "type": "event"
    },
    {
      "anonymous": false,
      "inputs": [
        {
          "indexed": false,
          "internalType": "uint256",
          "name": "tokenId",
          "type": "uint256"
        }
      ],
      "name": "MetadataUpdate",
      "type": "event"
    },
    {
      "anonymous": false,
      "inputs": [
        {
          "indexed": true,
          "internalType": "address",
          "name": "previousOwner",
          "type": "address"
        },
        {
          "indexed": true,
          "internalType": "address",
          "name": "newOwner",
          "type": "address"
        }
      ],
      "name": "OwnershipTransferStarted",
      "type": "event"
    },
    {
      "anonymous": false,
      "inputs": [
        {
          "indexed": true,
          "internalType": "address",
          "name": "previousOwner",
          "type": "address"
        },
        {
          "indexed": true,
          "internalType": "address",
          "name": "newOwner",
          "type": "address"
        }
      ],
      "name": "OwnershipTransferred",
      "type": "event"
    },
    {
      "anonymous": false,
      "inputs": [
        {
          "indexed": false,
          "internalType": "address",
          "name": "priceFeed",
          "type": "address"
        }
      ],
      "name": "PriceFeedUpdated",
      "type": "event"
    },
    {
      "anonymous": false,
      "inputs": [
        {
          "indexed": false,
          "internalType": "address",
          "name": "renderer",
          "type": "address"
        }
      ],
      "name": "RendererUpdated",
      "type": "event"
    },
    {
      "anonymous": false,
      "inputs": [
        {
          "indexed": false,
          "internalType": "uint256",
          "name": "time",
          "type": "uint256"
        }
      ],
      "name": "SaleStartChanged",
      "type": "event"
    },
    {
      "anonymous": false,
      "inputs": [
        {
          "indexed": true,
          "internalType": "address",
          "name": "supporter",
          "type": "address"
        },
        {
          "indexed": true,
          "internalType": "uint8",
          "name": "tier",
          "type": "uint8"
        },
        {
          "indexed": true,
          "internalType": "uint256",
          "name": "subscriptionId",
          "type": "uint256"
        },
        {
          "indexed": false,
          "internalType": "uint32",
          "name": "duration",
          "type": "uint32"
        },
        {
          "indexed": false,
          "internalType": "uint256",
          "name": "paid",
          "type": "uint256"
        },
        {
          "indexed": false,
          "internalType": "uint64",
          "name": "startedAt",
          "type": "uint64"
        },
        {
          "indexed": false,
          "internalType": "uint64",
          "name": "expiresAt",
          "type": "uint64"
        }
      ],
      "name": "Supported",
      "type": "event"
    },
    {
      "anonymous": false,
      "inputs": [
        {
          "indexed": true,
          "internalType": "uint8",
          "name": "tier",
          "type": "uint8"
        },
        {
          "indexed": false,
          "internalType": "uint128",
          "name": "priceUSD",
          "type": "uint128"
        }
      ],
      "name": "TierPriceUpdated",
      "type": "event"
    },
    {
      "anonymous": false,
      "inputs": [
        {
          "indexed": true,
          "internalType": "address",
          "name": "from",
          "type": "address"
        },
        {
          "indexed": true,
          "internalType": "address",
          "name": "to",
          "type": "address"
        },
        {
          "indexed": true,
          "internalType": "uint256",
          "name": "tokenId",
          "type": "uint256"
        }
      ],
      "name": "Transfer",
      "type": "event"
    },
    {
      "anonymous": false,
      "inputs": [
        {
          "indexed": true,
          "internalType": "address",
          "name": "to",
          "type": "address"
        },
        {
          "indexed": false,
          "internalType": "uint256",
          "name": "amount",
          "type": "uint256"
        }
      ],
      "name": "Withdrawal",
      "type": "event"
    },
    {
      "inputs": [],
      "name": "acceptOwnership",
      "outputs": [],
      "stateMutability": "nonpayable",
      "type": "function"
    },
    {
      "inputs": [
        {
          "internalType": "uint128",
          "name": "priceUSD",
          "type": "uint128"
        }
      ],
      "name": "addTier",
      "outputs": [],
      "stateMutability": "nonpayable",
      "type": "function"
    },
    {
      "inputs": [
        {
          "internalType": "address",
          "name": "to",
          "type": "address"
        },
        {
          "internalType": "uint256",
          "name": "tokenId",
          "type": "uint256"
        }
      ],
      "name": "approve",
      "outputs": [],
      "stateMutability": "nonpayable",
      "type": "function"
    },
    {
      "inputs": [
        {
          "internalType": "address",
          "name": "owner",
          "type": "address"
        }
      ],
      "name": "balanceOf",
      "outputs": [
        {
          "internalType": "uint256",
          "name": "",
          "type": "uint256"
        }
      ],
      "stateMutability": "view",
      "type": "function"
    },
    {
      "inputs": [
        {
          "internalType": "uint256",
          "name": "subscriptionId",
          "type": "uint256"
        }
      ],
      "name": "currentTier",
      "outputs": [
        {
          "internalType": "uint8",
          "name": "",
          "type": "uint8"
        },
        {
          "internalType": "bool",
          "name": "",
          "type": "bool"
        }
      ],
      "stateMutability": "view",
      "type": "function"
    },
    {
      "inputs": [
        {
          "internalType": "uint8",
          "name": "tier",
          "type": "uint8"
        },
        {
          "internalType": "uint32",
          "name": "duration",
          "type": "uint32"
        },
        {
          "internalType": "address",
          "name": "supporter",
          "type": "address"
        }
      ],
      "name": "estimate",
      "outputs": [
        {
          "internalType": "uint256",
          "name": "ethCost",
          "type": "uint256"
        },
        {
          "internalType": "uint32",
          "name": "adjustedDuration",
          "type": "uint32"
        }
      ],
      "stateMutability": "view",
      "type": "function"
    },
    {
      "inputs": [
        {
          "internalType": "uint256",
          "name": "tokenId",
          "type": "uint256"
        }
      ],
      "name": "getApproved",
      "outputs": [
        {
          "internalType": "address",
          "name": "",
          "type": "address"
        }
      ],
      "stateMutability": "view",
      "type": "function"
    },
    {
      "inputs": [
        {
          "internalType": "address",
          "name": "recipient",
          "type": "address"
        },
        {
          "internalType": "uint8",
          "name": "tier",
          "type": "uint8"
        },
        {
          "internalType": "uint32",
          "name": "duration",
          "type": "uint32"
        },
        {
          "internalType": "uint64",
          "name": "startAt",
          "type": "uint64"
        }
      ],
      "name": "grant",
      "outputs": [],
      "stateMutability": "nonpayable",
      "type": "function"
    },
    {
      "inputs": [],
      "name": "hook",
      "outputs": [
        {
          "internalType": "contract ISubscriptionHook",
          "name": "",
          "type": "address"
        }
      ],
      "stateMutability": "view",
      "type": "function"
    },
    {
      "inputs": [
        {
          "internalType": "address",
          "name": "supporter",
          "type": "address"
        }
      ],
      "name": "isActive",
      "outputs": [
        {
          "internalType": "bool",
          "name": "",
          "type": "bool"
        }
      ],
      "stateMutability": "view",
      "type": "function"
    },
    {
      "inputs": [
        {
          "internalType": "address",
          "name": "owner",
          "type": "address"
        },
        {
          "internalType": "address",
          "name": "operator",
          "type": "address"
        }
      ],
      "name": "isApprovedForAll",
      "outputs": [
        {
          "internalType": "bool",
          "name": "",
          "type": "bool"
        }
      ],
      "stateMutability": "view",
      "type": "function"
    },
    {
      "inputs": [],
      "name": "logo",
      "outputs": [
        {
          "internalType": "string",
          "name": "",
          "type": "string"
        }
      ],
      "stateMutability": "view",
      "type": "function"
    },
    {
      "inputs": [],
      "name": "name",
      "outputs": [
        {
          "internalType": "string",
          "name": "",
          "type": "string"
        }
      ],
      "stateMutability": "view",
      "type": "function"
    },
    {
      "inputs": [],
      "name": "owner",
      "outputs": [
        {
          "internalType": "address",
          "name": "",
          "type": "address"
        }
      ],
      "stateMutability": "view",
      "type": "function"
    },
    {
      "inputs": [
        {
          "internalType": "uint256",
          "name": "tokenId",
          "type": "uint256"
        }
      ],
      "name": "ownerOf",
      "outputs": [
        {
          "internalType": "address",
          "name": "",
          "type": "address"
        }
      ],
      "stateMutability": "view",
      "type": "function"
    },
    {
      "inputs": [],
      "name": "pendingOwner",
      "outputs": [
        {
          "internalType": "address",
          "name": "",
          "type": "address"
        }
      ],
      "stateMutability": "view",
      "type": "function"
    },
    {
      "inputs": [],
      "name": "priceFeed",
      "outputs": [
        {
          "internalType": "contract AggregatorV3Interface",
          "name": "",
          "type": "address"
        }
      ],
      "stateMutability": "view",
      "type": "function"
    },
    {
      "inputs": [],
      "name": "renderer",
      "outputs": [
        {
          "internalType": "contract ISupportRenderer",
          "name": "",
          "type": "address"
        }
      ],
      "stateMutability": "view",
      "type": "function"
    },
    {
      "inputs": [],
      "name": "renounceOwnership",
      "outputs": [],
      "stateMutability": "pure",
      "type": "function"
    },
    {
      "inputs": [
        {
          "internalType": "address",
          "name": "from",
          "type": "address"
        },
        {
          "internalType": "address",
          "name": "to",
          "type": "address"
        },
        {
          "internalType": "uint256",
          "name": "tokenId",
          "type": "uint256"
        }
      ],
      "name": "safeTransferFrom",
      "outputs": [],
      "stateMutability": "nonpayable",
      "type": "function"
    },
    {
      "inputs": [
        {
          "internalType": "address",
          "name": "from",
          "type": "address"
        },
        {
          "internalType": "address",
          "name": "to",
          "type": "address"
        },
        {
          "internalType": "uint256",
          "name": "tokenId",
          "type": "uint256"
        },
        {
          "internalType": "bytes",
          "name": "data",
          "type": "bytes"
        }
      ],
      "name": "safeTransferFrom",
      "outputs": [],
      "stateMutability": "nonpayable",
      "type": "function"
    },
    {
      "inputs": [],
      "name": "saleStart",
      "outputs": [
        {
          "internalType": "uint256",
          "name": "",
          "type": "uint256"
        }
      ],
      "stateMutability": "view",
      "type": "function"
    },
    {
      "inputs": [],
      "name": "saleStarted",
      "outputs": [
        {
          "internalType": "bool",
          "name": "",
          "type": "bool"
        }
      ],
      "stateMutability": "view",
      "type": "function"
    },
    {
      "inputs": [
        {
          "internalType": "address",
          "name": "operator",
          "type": "address"
        },
        {
          "internalType": "bool",
          "name": "approved",
          "type": "bool"
        }
      ],
      "name": "setApprovalForAll",
      "outputs": [],
      "stateMutability": "nonpayable",
      "type": "function"
    },
    {
      "inputs": [
        {
          "internalType": "contract ISubscriptionHook",
          "name": "_hook",
          "type": "address"
        }
      ],
      "name": "setHook",
      "outputs": [],
      "stateMutability": "nonpayable",
      "type": "function"
    },
    {
      "inputs": [
        {
          "internalType": "string",
          "name": "_logo",
          "type": "string"
        }
      ],
      "name": "setLogo",
      "outputs": [],
      "stateMutability": "nonpayable",
      "type": "function"
    },
    {
      "inputs": [
        {
          "internalType": "address",
          "name": "_priceFeed",
          "type": "address"
        }
      ],
      "name": "setPriceFeed",
      "outputs": [],
      "stateMutability": "nonpayable",
      "type": "function"
    },
    {
      "inputs": [
        {
          "internalType": "address",
          "name": "_renderer",
          "type": "address"
        }
      ],
      "name": "setRenderer",
      "outputs": [],
      "stateMutability": "nonpayable",
      "type": "function"
    },
    {
      "inputs": [
        {
          "internalType": "uint256",
          "name": "time",
          "type": "uint256"
        }
      ],
      "name": "setSaleStart",
      "outputs": [],
      "stateMutability": "nonpayable",
      "type": "function"
    },
    {
      "inputs": [
        {
          "internalType": "uint8",
          "name": "tier",
          "type": "uint8"
        },
        {
          "internalType": "uint128",
          "name": "priceUSD",
          "type": "uint128"
        }
      ],
      "name": "setTierPrice",
      "outputs": [],
      "stateMutability": "nonpayable",
      "type": "function"
    },
    {
      "inputs": [
        {
          "internalType": "address",
          "name": "",
          "type": "address"
        }
      ],
      "name": "subscription",
      "outputs": [
        {
          "internalType": "uint256",
          "name": "",
          "type": "uint256"
        }
      ],
      "stateMutability": "view",
      "type": "function"
    },
    {
      "inputs": [
        {
          "internalType": "uint256",
          "name": "",
          "type": "uint256"
        }
      ],
      "name": "subscriptions",
      "outputs": [
        {
          "internalType": "uint64",
          "name": "createdAt",
          "type": "uint64"
        },
        {
          "internalType": "uint64",
          "name": "startedAt",
          "type": "uint64"
        },
        {
          "internalType": "uint64",
          "name": "expiresAt",
          "type": "uint64"
        }
      ],
      "stateMutability": "view",
      "type": "function"
    },
    {
      "inputs": [
        {
          "internalType": "address",
          "name": "recipient",
          "type": "address"
        },
        {
          "internalType": "uint8",
          "name": "tier",
          "type": "uint8"
        },
        {
          "internalType": "uint32",
          "name": "duration",
          "type": "uint32"
        }
      ],
      "name": "support",
      "outputs": [],
      "stateMutability": "payable",
      "type": "function"
    },
    {
      "inputs": [
        {
          "internalType": "bytes4",
          "name": "interfaceId",
          "type": "bytes4"
        }
      ],
      "name": "supportsInterface",
      "outputs": [
        {
          "internalType": "bool",
          "name": "",
          "type": "bool"
        }
      ],
      "stateMutability": "view",
      "type": "function"
    },
    {
      "inputs": [],
      "name": "symbol",
      "outputs": [
        {
          "internalType": "string",
          "name": "",
          "type": "string"
        }
      ],
      "stateMutability": "view",
      "type": "function"
    },
    {
      "inputs": [
        {
          "internalType": "uint256",
          "name": "",
          "type": "uint256"
        },
        {
          "internalType": "uint256",
          "name": "",
          "type": "uint256"
        }
      ],
      "name": "tierHistory",
      "outputs": [
        {
          "internalType": "uint8",
          "name": "tier",
          "type": "uint8"
        },
        {
          "internalType": "uint64",
          "name": "startedAt",
          "type": "uint64"
        }
      ],
      "stateMutability": "view",
      "type": "function"
    },
    {
      "inputs": [
        {
          "internalType": "uint256",
          "name": "subscriptionId",
          "type": "uint256"
        }
      ],
      "name": "tierPeriods",
      "outputs": [
        {
          "components": [
            {
              "internalType": "uint8",
              "name": "tier",
              "type": "uint8"
            },
            {
              "internalType": "uint64",
              "name": "startedAt",
              "type": "uint64"
            }
          ],
          "internalType": "struct TierPeriod[]",
          "name": "",
          "type": "tuple[]"
        }
      ],
      "stateMutability": "view",
      "type": "function"
    },
    {
      "inputs": [
        {
          "internalType": "uint256",
          "name": "",
          "type": "uint256"
        }
      ],
      "name": "tierPrices",
      "outputs": [
        {
          "internalType": "uint128",
          "name": "",
          "type": "uint128"
        }
      ],
      "stateMutability": "view",
      "type": "function"
    },
    {
      "inputs": [
        {
          "internalType": "address",
          "name": "owner",
          "type": "address"
        }
      ],
      "name": "tokenOf",
      "outputs": [
        {
          "internalType": "uint256",
          "name": "",
          "type": "uint256"
        }
      ],
      "stateMutability": "view",
      "type": "function"
    },
    {
      "inputs": [
        {
          "internalType": "uint256",
          "name": "tokenId",
          "type": "uint256"
        }
      ],
      "name": "tokenURI",
      "outputs": [
        {
          "internalType": "string",
          "name": "",
          "type": "string"
        }
      ],
      "stateMutability": "view",
      "type": "function"
    },
    {
      "inputs": [],
      "name": "totalSupply",
      "outputs": [
        {
          "internalType": "uint256",
          "name": "",
          "type": "uint256"
        }
      ],
      "stateMutability": "view",
      "type": "function"
    },
    {
      "inputs": [],
      "name": "totalTiers",
      "outputs": [
        {
          "internalType": "uint256",
          "name": "",
          "type": "uint256"
        }
      ],
      "stateMutability": "view",
      "type": "function"
    },
    {
      "inputs": [
        {
          "internalType": "address",
          "name": "from",
          "type": "address"
        },
        {
          "internalType": "address",
          "name": "to",
          "type": "address"
        },
        {
          "internalType": "uint256",
          "name": "tokenId",
          "type": "uint256"
        }
      ],
      "name": "transferFrom",
      "outputs": [],
      "stateMutability": "nonpayable",
      "type": "function"
    },
    {
      "inputs": [
        {
          "internalType": "address",
          "name": "newOwner",
          "type": "address"
        }
      ],
      "name": "transferOwnership",
      "outputs": [],
      "stateMutability": "nonpayable",
      "type": "function"
    },
    {
      "inputs": [],
      "name": "withdraw",
      "outputs": [],
      "stateMutability": "nonpayable",
      "type": "function"
    }
  ],
  "bytecode": "0x6080604052346107745761327d8038038061001981610798565b92833981016101208282031261077457610032826107bd565b60208301519092906001600160401b03811161077457826100549183016107d1565b60408201519091906001600160401b03811161077457836100769183016107d1565b90610083606082016107bd565b60808201519091906001600160401b0381116107745781019585601f88011215610774578651956001600160401b038711610490578660051b9760206100ca818b01610798565b8099815201906020829a8201019083821161077457602001915b8183106107785750505060a083015160c084015190916001600160401b038211610774576101139185016107d1565b9361010061012360e086016107bd565b9401516001600160a01b0381169390849003610774576001600160a01b0316801561076157600180546001600160a01b03199081169091555f8054918216831781556001600160a01b03909116907f8be0079c531659141344cd1fd0a4f28419497f9722a3daafe3b4186f6b6457e09080a36001600160a01b0316801561075257600280546001600160a01b0319169190911790556003555f5b86518110156101f557600581901b8701602001516001600160801b0316156101e7576001016101bd565b62bfc92160e01b5f5260045ffd5b508551876001600160401b038211610490576801000000000000000082116104905760045482600455808310610702575b509060045f5260205f208160011c915f5b8381106106bd57506001198116900380610674575b5050505080610630575b5083516001600160401b03811161049057600a54600181811c91168015610626575b602082101461047257601f81116105d8575b50602094601f8211600114610575579481929394955f9261056a575b50508160011b915f199060031b1c191617600a555b82516001600160401b03811161049057600b54600181811c91168015610560575b602082101461047257601f8111610512575b506020601f82116001146104af57819293945f926104a4575b50508160011b915f199060031b1c191617600b555b81516001600160401b03811161049057601254600181811c91168015610486575b602082101461047257601f8111610419575b50602092601f82116001146103b857928192935f926103ad575b50508160011b915f199060031b1c1916176012555b601180546001600160a01b0319166001600160a01b0392909216919091179055604051612a4490816108398239f35b015190508380610369565b601f1982169360125f52805f20915f5b86811061040157508360019596106103e9575b505050811b0160125561037e565b01515f1960f88460031b161c191690558380806103db565b919260206001819286850151815501940192016103c8565b60125f52610462907fbb8a6a4669ba250d26cd7a459eca9d215f8307e33aebe50379bc5a3617ec3444601f840160051c81019160208510610468575b601f0160051c0190610822565b8361034f565b9091508190610455565b634e487b7160e01b5f52602260045260245ffd5b90607f169061033d565b634e487b7160e01b5f52604160045260245ffd5b015190508480610307565b601f19821690600b5f52805f20915f5b8181106104fa575095836001959697106104e2575b505050811b01600b5561031c565b01515f1960f88460031b161c191690558480806104d4565b9192602060018192868b0151815501940192016104bf565b600b5f5261055a907f0175b7a638427703f0dbe7bb9bbf987a2551717b34e79f33b5b1008d1fa01db9601f840160051c8101916020851061046857601f0160051c0190610822565b846102ee565b90607f16906102dc565b0151905085806102a6565b601f19821695600a5f52805f20915f5b8881106105c0575083600195969798106105a8575b505050811b01600a556102bb565b01515f1960f88460031b161c1916905585808061059a565b91926020600181928685015181550194019201610585565b600a5f52610620907fc65a7bb8d6351c1cf70c95a316cc6a92839c986682d98bc35f958f4883f9d2a8601f840160051c8101916020851061046857601f0160051c0190610822565b8561028a565b90607f1690610278565b600580546001600160a01b031916821790556040519081527fe816c20840d998c8612f9b624b91687a80510eeb293cb09f7637379f6d73342d90602090a184610256565b925f935f5b81811061068e5750505001558580808061024c565b82516001600160801b03908116600783901b90811b91901b199096169590951794602090920191600101610679565b5f5f5b600281106106d5575083820155600101610237565b86519096916001916020916001600160801b0360078b901b81811b199092169216901b17920196016106c0565b6107319060045f5260205f206001808601811c82019260108760041b1680610737575b500160011c0190610822565b87610226565b5f198501908154905f199060200360031b1c1690558c610725565b6352cc3f7d60e01b5f5260045ffd5b631e4fbdf760e01b5f525f60045260245ffd5b5f80fd5b82516001600160801b0381168103610774578152602092830192016100e4565b6040519190601f01601f191682016001600160401b0381118382101761049057604052565b51906001600160a01b038216820361077457565b81601f82011215610774578051906001600160401b03821161049057610800601f8301601f1916602001610798565b928284526020838301011161077457815f9260208093018386015e8301015290565b81811061082d575050565b5f815560010161082256fe6080806040526004361015610012575f80fd5b5f3560e01c90816301ffc9a7146118cb5750806306fdde03146118b0578063081812fc14611874578063095ea7b31461178a57806318160ddd1461176d57806323b872dd146117565780632b185623146113a55780632d5bbf601461135c5780632f181f54146112f65780632fe319621461115d578063300eccab1461111c5780633ccfd60b146110865780633dd4ec8414610efe5780633dfd387314610e915780634153838514610e6257806342842e0e14610e3957806342ec38e214610dd45780634ef47cf114610d9c57806356d3163d14610d305780635c474f9e14610d105780636352211e14610ce0578063689d1e1c14610c3657806370a0823114610c0b578063715018a614610c02578063724e78da14610b82578063741bef1a14610b5a57806379ba509714610ada57806379eaaf6114610abd5780637f5a7c7b14610a955780638ada6b0f14610a6d5780638da5cb5b14610a4657806395d89b411461097c5780639f8a13d71461093a578063a22cb46514610886578063ab0bcc4114610869578063b88d4fde146107e0578063c87b56dd14610547578063de5a21b4146104f2578063e30c3978146104ca578063e7fc71e61461040d578063e985e9c5146103b6578063f2fde38b14610341578063f84ffb6a14610280578063fb7f21eb146102515763fc4dde231461020b575f80fd5b3461024d57602036600319011261024d576004355f52600960205261024961023560405f20611e91565b604051918291602083526020830190611c3b565b0390f35b5f80fd5b3461024d575f36600319011261024d5761024961026c611bb9565b604051918291602083526020830190611950565b3461024d57604036600319011261024d576102996119ea565b602435906001600160801b0382169182810361024d576102b7612943565b6004549260ff8316938410156103325780156103245761031b6020926102fc7ee6d1c362eabd4a14a2d345c0c4f80efaeefaa29687bd559a1279210add1dab95611a0d565b9091906001600160801b038084549260031b9316831b921b1916179055565b604051908152a2005b62bfc92160e01b5f5260045ffd5b63e142361760e01b5f5260045ffd5b3461024d57602036600319011261024d5761035a611974565b610362612943565b61036a612943565b60018060a01b0316806001600160601b0360a01b600154161760015560018060a01b035f54167f38d16b8cac22d99fc7c124b9cd0de2d3fa1faef420bfe791d8c362d765e227005f80a3005b3461024d57604036600319011261024d576103cf611974565b6103d761198a565b9060018060a01b03165f52600f60205260405f209060018060a01b03165f52602052602060ff60405f2054166040519015158152f35b3461024d57602036600319011261024d576004356001600160801b0381169081810361024d5761043b612943565b81156103245760045490600160401b8210156104b6576102fc8260016104649401600455611a0d565b6004545f1981019081116104a257602060ff7ee6d1c362eabd4a14a2d345c0c4f80efaeefaa29687bd559a1279210add1dab926040519485521692a2005b634e487b7160e01b5f52601160045260245ffd5b634e487b7160e01b5f52604160045260245ffd5b3461024d575f36600319011261024d576001546040516001600160a01b039091168152602090f35b3461024d57604036600319011261024d576024356004355f52600960205260405f20805482101561024d5760409161052991611ab5565b50546001600160401b0382519160ff8116835260081c166020820152f35b3461024d57602036600319011261024d5760043561056481611f0c565b9061056e81611d23565b929083156107d057915b610580611b02565b5f8281526008602090815260408083205460035460099093529281902081519498909794959184901c6001600160401b0390811695608086901c82169592949093908216928216916101608901908111898210176104b65760405287526020870197600160a01b6001900316885260408701998a526105fd611bb9565b9860608801998a526080880196875260a0880195865260c0880191825260e0880192835261010088019360ff1684526101208801941515855261063f90611e91565b6101408801908152601154604051638738057b60e01b815260206004820152985160248a015298516001600160a01b0390811660448a01529a5161016060648a0152979a909816988a9889989096919061069e906101848b0190611950565b90518982036023190160848b01526106b69190611950565b96516001600160401b031660a4890152516001600160401b031660c4880152516001600160401b031660e4870152516001600160401b03166101048601525160ff1661012485015251151561014484015251906023198382030161016484015261071f91611c3b565b03815a935f94fa80156107c5575f9061074b575b61024990604051918291602083526020830190611950565b503d805f833e61075b8183611a79565b81019060208183031261024d578051906001600160401b03821161024d57019080601f8301121561024d57815161079181611a9a565b9161079f6040519384611a79565b8183526020828501011161024d576020815f928261024996018386015e83010152610733565b6040513d5f823e3d90fd5b506107da826129ac565b91610578565b3461024d57608036600319011261024d576107f9611974565b61080161198a565b606435916001600160401b03831161024d573660238401121561024d5782600401359161082d83611a9a565b9261083b6040519485611a79565b808452366024828701011161024d576020815f9260246108679801838801378501015260443591611d78565b005b3461024d575f36600319011261024d576020600354604051908152f35b3461024d57604036600319011261024d5761089f611974565b6024359081151580920361024d573315610927576001600160a01b031690811561091457335f52600f60205260405f20825f5260205260405f2060ff1981541660ff83161790556040519081527f17307eab39ab6107e8899845ad3d59bd9653f200f220920489ca2b5937696c3160203392a3005b50630b61174360e31b5f5260045260245ffd5b63a9fbf51f60e01b5f525f60045260245ffd5b3461024d57602036600319011261024d576001600160a01b0361095b611974565b165f526007602052602061097260405f2054612956565b6040519015158152f35b3461024d575f36600319011261024d576040515f600b5461099c81611aca565b8084529060018116908115610a2257506001146109c4575b6102498361026c81850382611a79565b600b5f9081527f0175b7a638427703f0dbe7bb9bbf987a2551717b34e79f33b5b1008d1fa01db9939250905b808210610a085750909150810160200161026c6109b4565b9192600181602092548385880101520191019092916109f0565b60ff191660208086019190915291151560051b8401909101915061026c90506109b4565b3461024d575f36600319011261024d575f546040516001600160a01b039091168152602090f35b3461024d575f36600319011261024d576011546040516001600160a01b039091168152602090f35b3461024d575f36600319011261024d576005546040516001600160a01b039091168152602090f35b3461024d575f36600319011261024d576020600454604051908152f35b3461024d575f36600319011261024d57600154336001600160a01b03821603610b47576001600160a01b03199081166001555f805433928116831782556001600160a01b0316907f8be0079c531659141344cd1fd0a4f28419497f9722a3daafe3b4186f6b6457e09080a3005b63118cdaa760e01b5f523360045260245ffd5b3461024d575f36600319011261024d576002546040516001600160a01b039091168152602090f35b3461024d57602036600319011261024d57610b9b611974565b610ba3612943565b6001600160a01b03168015610bf3576020817fe5b20b8497e4f3e2435ef9c20e2e26b47497ee13745ce1c681ad6640653119e6926001600160601b0360a01b6002541617600255604051908152a1005b6352cc3f7d60e01b5f5260045ffd5b3461024d575f80fd5b3461024d57602036600319011261024d576020610c2e610c29611974565b611d47565b604051908152f35b3461024d57606036600319011261024d57610c4f6119ea565b60243563ffffffff81169081810361024d57604435916001600160a01b038316830361024d5760045460ff851610156103325715610cd15760409282610c97610cb0946122dd565b60055490959115949192506001600160a01b0316612337565b63ffffffff6020610cc183516124ae565b9201511682519182526020820152f35b637616640160e01b5f5260045ffd5b3461024d57602036600319011261024d576020610cfe600435611f0c565b6040516001600160a01b039091168152f35b3461024d575f36600319011261024d576020600354604051904210158152f35b3461024d57602036600319011261024d577f482cbbbcf912da3be80deb8503ae1e94c0b7d5d1d0ec0af3d9d6403e06e609ee6020610d6c611974565b610d74612943565b601180546001600160a01b0319166001600160a01b03929092169182179055604051908152a1005b3461024d57602036600319011261024d576001600160a01b03610dbd611974565b165f526007602052602060405f2054604051908152f35b3461024d57602036600319011261024d576001600160a01b03610df5611974565b16805f52601060205260405f205415610e2a575f52601060205260405f20545f1981019081116104a257602090604051908152f35b633cef6cb960e21b5f5260045ffd5b3461024d57610867610e4a366119a0565b9060405192610e5a602085611a79565b5f8452611d78565b3461024d57602036600319011261024d576040610e80600435611d23565b60ff83519216825215156020820152f35b3461024d57602036600319011261024d576004356001600160a01b0381169081900361024d5760207fe816c20840d998c8612f9b624b91687a80510eeb293cb09f7637379f6d73342d91610ee3612943565b600580546001600160a01b03191682179055604051908152a1005b3461024d57608036600319011261024d57610f17611974565b610f1f6119da565b90610f286119fa565b6064356001600160401b03811680820361024d57610f44612943565b6001600160a01b038416928315611077576004549460ff87169586101561033257610f6e816122dd565b98919092831580611069575b610cd1577f849b81e401817aac8f9efd18f070110316084777697b8ea914405ce0766b9614966080966001600160401b0395610ff9948693610fe5931561105f57915b1561105557805f526008602052610fdc898960405f20548d1c166125ad565b96879186612670565b600554909b906001600160a01b031661284f565b7ff8e1a15aba9398e019f0b49df1a4fde98ee17ae345cb5f6b5e2c27f5033e8ce760206040518a8152a1875f5260086020528160405f205460401c1663ffffffff604051941684525f60208501526040840152166060820152a4005b610fdc89836125ad565b5087421691610fbd565b5063ffffffff851615610f7a565b634e46966960e11b5f5260045ffd5b3461024d575f36600319011261024d5761109e612943565b47801561110d575f8080808460018060a01b038254165af16110be611cf4565b50156110fe575f546040519182526001600160a01b0316907f7fcf532c15f0a6db0bd6d0e038bea71d30d808c7d98cb3bf7268a95bf5081b6590602090a2005b6312171d8360e31b5f5260045ffd5b630686827b60e51b5f5260045ffd5b3461024d57602036600319011261024d5760043560045481101561024d576001600160801b0361114d602092611a0d565b90549060031b1c16604051908152f35b3461024d57602036600319011261024d576004356001600160401b03811161024d573660238201121561024d5780600401356001600160401b03811161024d57366024828401011161024d576111b1612943565b6111bc601254611aca565b601f8111611292575b505f601f82116001146112245781925f92611216575b50508160011b915f199060031b1c1916176012555b7f9a60d5a5d2917790b8effa7b48d942425be45ea2652254a2308fb55887ce04c45f80a1005b6024925001013582806111db565b601f198216925f5160206129ef5f395f51905f52915f5b8581106112775750836001951061125b575b505050811b016012556111f0565b01602401355f19600384901b60f8161c1916905582808061124d565b9092602060018192602487870101358155019401910161123b565b601f820160051c5f5160206129ef5f395f51905f520190602083106112e1575b601f0160051c5f5160206129ef5f395f51905f5201905b8181106112d657506111c5565b5f81556001016112c9565b5f5160206129ef5f395f51905f5291506112b2565b3461024d57602036600319011261024d57600435611312612943565b60035442101561134d576020817fb751cc79e5d90c9173e2971809c6658fcf527209d16860326bfe7779a9169f0b92600355604051908152a1005b63291659fd60e11b5f5260045ffd5b3461024d57602036600319011261024d576004355f526008602052606060405f20546001600160401b03604051918181168352818160401c16602084015260801c166040820152f35b606036600319011261024d576113b9611974565b6113c16119da565b6113c96119fa565b906003544210611747576001600160a01b0383168015611077576004549060ff831691821015610332576113fc856122dd565b909491858061173a575b80611730575b8061171c575b61170d5763ffffffff8716908115806116f9575b610cd157611447838a9960018060a01b036005541699159a8b91888c612337565b97426001600160401b031690156115715761146289516124ae565b986001600160401b0360408201511680611565575b5063ffffffff602061148c92015116826125ad565b905b893410611556578a866080966114d76114dd946115379f7f849b81e401817aac8f9efd18f070110316084777697b8ea914405ce0766b96149b6001600160401b03998992612670565b9b61284f565b7ff8e1a15aba9398e019f0b49df1a4fde98ee17ae345cb5f6b5e2c27f5033e8ce760206040518a8152a1875f5260086020528160405f205460401c166040519384528960208501526040840152166060820152a434611ce7565b8061153e57005b5f80808093335af161154e611cf4565b50156110fe57005b63cd1c886760e01b5f5260045ffd5b915063ffffffff611477565b60ff841687036115b9576115b36115888a516124ae565b99835f52600860205263ffffffff60206001600160401b0360405f205460801c1692015116906125ad565b9061148e565b97815f526008602052886001600160401b0360405f205460801c1603906001600160401b0382116104a2576001600160801b036115f586611a0d565b90549060031b1c16906001600160801b0361160f88611a0d565b90549060031b1c169063ffffffff602061164e61164885611643886001600160401b0361163c89516124ae565b9b16612324565b612483565b426124a1565b9201511662278d0081029080820462278d0014901517156104a257611672916124a1565b9181116116a9575b506001600160401b0381111561169b57506001600160401b035b909861148e565b6001600160401b0316611694565b62278d004201908142116104a2578183106116c5575b5061167a565b62278d006116e56116eb926116df6116f196869896611ce7565b90612324565b046124ae565b906124a1565b908b806116bf565b50861580611426575060ff83168614611426565b6301ce3de960e31b5f5260045ffd5b505f546001600160a01b0316331415611412565b508333141561140c565b5060ff8216851415611406565b6316851a3760e11b5f5260045ffd5b3461024d57610867611767366119a0565b91611c86565b3461024d575f36600319011261024d576020600654604051908152f35b3461024d57604036600319011261024d576117a3611974565b6024356117af81611f0c565b33151580611861575b80611834575b6118215781906001600160a01b0384811691167f8c5be1e5ebec7d5bd14f71427d1e84f3dd0314c0f7b2291e5b200ac8c7c3b9255f80a45f908152600e6020526040902080546001600160a01b0319166001600160a01b03909216919091179055005b63a9fbf51f60e01b5f523360045260245ffd5b506001600160a01b0381165f908152600f6020908152604080832033845290915290205460ff16156117be565b506001600160a01b0381163314156117b8565b3461024d57602036600319011261024d5760043561189181611f0c565b505f52600e602052602060018060a01b0360405f205416604051908152f35b3461024d575f36600319011261024d5761024961026c611b02565b3461024d57602036600319011261024d576004359063ffffffff60e01b821680920361024d57602091632483248360e11b811490811561190d575b5015158152f35b6380ac58cd60e01b81149150811561193f575b811561192e575b5083611906565b6301ffc9a760e01b14905083611927565b635b5e139f60e01b81149150611920565b805180835260209291819084018484015e5f828201840152601f01601f1916010190565b600435906001600160a01b038216820361024d57565b602435906001600160a01b038216820361024d57565b606090600319011261024d576004356001600160a01b038116810361024d57906024356001600160a01b038116810361024d579060443590565b6024359060ff8216820361024d57565b6004359060ff8216820361024d57565b6044359063ffffffff8216820361024d57565b90600454821015611a2f5760045f52601060205f208360011c019260041b1690565b634e487b7160e01b5f52603260045260245ffd5b604081019081106001600160401b038211176104b657604052565b606081019081106001600160401b038211176104b657604052565b90601f801991011681019081106001600160401b038211176104b657604052565b6001600160401b0381116104b657601f01601f191660200190565b8054821015611a2f575f5260205f2001905f90565b90600182811c92168015611af8575b6020831014611ae457565b634e487b7160e01b5f52602260045260245ffd5b91607f1691611ad9565b604051905f82600a5491611b1583611aca565b8083529260018116908115611b9a5750600114611b3b575b611b3992500383611a79565b565b50600a5f90815290917fc65a7bb8d6351c1cf70c95a316cc6a92839c986682d98bc35f958f4883f9d2a85b818310611b7e575050906020611b3992820101611b2d565b6020919350806001915483858901015201910190918492611b66565b60209250611b3994915060ff191682840152151560051b820101611b2d565b604051905f8260125491611bcc83611aca565b8083529260018116908115611b9a5750600114611bef57611b3992500383611a79565b5060125f90815290915f5160206129ef5f395f51905f525b818310611c1f575050906020611b3992820101611b2d565b6020919350806001915483858901015201910190918492611c07565b90602080835192838152019201905f5b818110611c585750505090565b8251805160ff1685526020908101516001600160401b03168186015260409094019390920191600101611c4b565b91906001600160a01b03811615611cd457611ca3908233916121a8565b6001600160a01b039081169216808303611cbc57505050565b6364283d7b60e01b5f5260045260245260445260645ffd5b633250574960e11b5f525f60045260245ffd5b919082039182116104a257565b3d15611d1e573d90611d0582611a9a565b91611d136040519384611a79565b82523d5f602084013e565b606090565b611d2c81612956565b15611d4057611d3a906129ac565b90600190565b505f905f90565b6001600160a01b03168015611d65575f52600d60205260405f205490565b6322718ad960e21b5f525f60045260245ffd5b9291611d85818386611c86565b813b611d92575b50505050565b604051630a85bd0160e11b81523360048201526001600160a01b0394851660248201526044810191909152608060648201529216919060209082908190611ddd906084830190611950565b03815f865af15f9181611e4c575b50611e195750611df9611cf4565b80519081611e145782633250574960e11b5f5260045260245ffd5b602001fd5b6001600160e01b03191663757a42ff60e11b01611e3a57505f808080611d8c565b633250574960e11b5f5260045260245ffd5b9091506020813d602011611e89575b81611e6860209383611a79565b8101031261024d57516001600160e01b03198116810361024d57905f611deb565b3d9150611e5b565b9081546001600160401b0381116104b65760405192611eb660208360051b0185611a79565b81845260208401905f5260205f205f915b838310611ed45750505050565b600160208192604051611ee681611a43565b6001600160401b03865460ff8116835260081c1683820152815201920192019190611ec7565b5f818152600c60205260409020546001600160a01b0316908115611f2e575090565b637e27328960e01b5f5260045260245ffd5b5f828152600c60205260408120546001600160a01b0316929091908315801580612175575b6001600160a01b0384169182159081158061215d575b855f52600c60205260405f20856001600160601b0360a01b8254161790558386868b7fddf252ad1be2c89b69c2b068fc378daa952ba7f163c4a11628f55a4df523b3ef5f80a461214a575b61210e575b91612106575b506120ff57611fdf82612956565b9182915f936120ee575b5f87815260076020526040808220829055918152205561200a575b50505090565b6005546001600160a01b03169081612023575b50612004565b813b1561024d57604051636f1fdb5360e01b815260ff821660048201526001600160a01b03861660248201525f8160448183875af180156107c5576120d9575b50813b156120d5576040516286ba0560e21b815260ff90911660048201526001600160a01b039092166024830152829082908183816044810103925af180156120ca576120b2575b808061201d565b6120bd828092611a79565b6120c757806120ab565b80fd5b6040513d84823e3d90fd5b8380fd5b6120e69194505f90611a79565b5f925f612063565b92506120f9816129ac565b92611fe9565b5050505090565b90505f611fd1565b600161211987611d47565b1161213b57600185018086116104a257845f52601060205260405f2055611fcb565b63c9defca760e01b5f5260045ffd5b885f5260106020525f6040812055611fc6565b845f52600d60205260405f2060018154019055611f7b565b5f838152600e6020526040902080546001600160a01b0319169055855f52600d60205260405f205f198154019055611f65565b5f828152600c60205260408120546001600160a01b03908116949193911680151580612250575b50508315801580612175576001600160a01b0384169182159081158061215d57855f52600c60205260405f20856001600160601b0360a01b8254161790558386868b7fddf252ad1be2c89b69c2b068fc378daa952ba7f163c4a11628f55a4df523b3ef5f80a461214a5761210e579161210657506120ff57611fdf82612956565b8061228e575b1561226157806121cf565b846122795750637e27328960e01b5f5260045260245ffd5b63177e802f60e01b5f5260045260245260445ffd5b5080851480156122bd575b8061225657505f828152600e60205260409020546001600160a01b03168114612256565b50845f52600f60205260405f20815f5260205260ff60405f205416612299565b6001600160a01b0316801561231a575f52600760205260405f20549061230282612956565b90821561231557612312836129ac565b90565b60ff90565b505f905f9060ff90565b818102929181159184041417156104a257565b949092919360405161234881611a5e565b5f81525f60208201525f60408201525061238263ffffffff6001600160801b0361237187611a0d565b90549060031b1c1696168096612324565b956001600160a01b03169283156124615760ff949260c494928692606098996040519a8b998a9863aab0dd3560e01b8a521660048901526024880152604487015260018060a01b03166064860152151560848501521660a48301525afa9081156107c5575f916123f0575090565b90506060813d606011612459575b8161240b60609383611a79565b8101031261024d576040519061242082611a5e565b8051825260208101519063ffffffff8216820361024d57604091602084015201516001600160401b038116810361024d57604082015290565b3d91506123fe565b50505050506040519161247383611a5e565b825260208201525f604082015290565b811561248d570490565b634e487b7160e01b5f52601260045260245ffd5b919082018092116104a257565b80156125a857600254604051633fabe5a360e21b81529060a090829060049082906001600160a01b03165afa9081156107c5575f915f925f925f92612552575b505f8413156125435769ffffffffffffffffffff80911691161061254357612519610e109142611ce7565b1161254357670de0b6b3a76400008202918204670de0b6b3a7640000036104a25761231291612483565b630cd5fa0760e11b5f5260045ffd5b935050505060a0813d60a0116125a0575b8161257060a09383611a79565b8101031261024d57612581816129d7565b60208201516125976080606085015194016129d7565b9092915f6124ee565b3d9150612563565b505f90565b9063ffffffff1662278d0081029080820462278d0014901517156104a2576001600160401b036125dd92166124a1565b6001600160401b038111156125f857506001600160401b0390565b6001600160401b031690565b8054600160401b8110156104b65761262191600182018155611ab5565b91909161265d578051825460209092015168ffffffffffffffffff1990921660ff919091161760089190911b68ffffffffffffffff0016179055565b634e487b7160e01b5f525f60045260245ffd5b9093929184156127fd575b845f52600860205260405f20936001600160401b03855460801c164210155f146127a65784546001600160401b03811615612788575b50845467ffffffffffffffff60401b8260401b169067ffffffffffffffff60401b1916178555855f52600960205260405f208054905f81558161276a575b50509061272891865f5260096020526001600160401b0360405f209160ff6040519461271a86611a43565b168452166020830152612604565b6001600160a01b03165f908152600760205260409020839055815467ffffffffffffffff60801b191660809190911b67ffffffffffffffff60801b1617905590565b5f5260205f20908101905b818110156126ef575f8155600101612775565b67ffffffffffffffff1916426001600160401b03161785555f6126b1565b5060ff806127b3876129ac565b1691169081036127c4575b50612728565b6127f790855f52600960205260405f20604051916127e183611a43565b82526001600160401b0342166020830152612604565b5f6127be565b93506006545f1981146104a257600101600681905593846001600160a01b03831615611cd4576001600160a01b03906128369084611f40565b161561267b576339e3563760e11b5f525f60045260245ffd5b5f93926001600160a01b0390911691821561293c5760ff811660ff811415908161292e575b506128d7575b50813b156120d5576040516286ba0560e21b815260ff90911660048201526001600160a01b039092166024830152829082908183816044810103925af180156120ca576128c5575050565b6128d0828092611a79565b6120c75750565b823b1561024d57604051636f1fdb5360e01b815260ff9190911660048201526001600160a01b03841660248201525f8160448183875af180156107c5571561287a576129269194505f90611a79565b5f925f61287a565b905060ff831614155f612874565b5050505050565b5f546001600160a01b03163303610b4757565b8015159081612989575b81612969575090565b90505f5260086020526001600160401b0360405f205460401c1642101590565b8091505f5260086020526001600160401b0360405f205460801c16421090612960565b5f52600960205260405f208054905f1982019182116104a25760ff916129d191611ab5565b50541690565b519069ffffffffffffffffffff8216820361024d5756febb8a6a4669ba250d26cd7a459eca9d215f8307e33aebe50379bc5a3617ec3444a2646970667358221220a9f2632f0a33f923ef6c70a842aa9305af26779ded1bb46754416a0949a2c07164736f6c634300081c0033",
  "linkReferences": {},
  "deployedLinkReferences": {},
  "immutableReferences": {},
  "inputSourceName": "project/contracts/SupportToken.sol",
  "buildInfoId": "solc-0_8_28-76bce20ae133ee120080da4b01a6bc7203c72426"
}