{
  "_format": "hh3-artifact-1",
  "contractName": "SupportRenderer",
  "sourceName": "contracts/renderers/SupportRenderer.sol",
  "abi": [
    {
      "inputs": [],
      "stateMutability": "nonpayable",
      "type": "constructor"
    },
    {
      "inputs": [],
      "name": "InvalidBadgeWidth",
      "type": "error"
    },
    {
      "inputs": [
        {
          "internalType": "address",
          "name": "owner",
          "type": "address"
        }
      ],
      "name": "OwnableInvalidOwner",
      "type": "error"
    },
    {
      "inputs": [
        {
          "internalType": "address",
          "name": "account",
          "type": "address"
        }
      ],
      "name": "OwnableUnauthorizedAccount",
      "type": "error"
    },
    {
      "anonymous": false,
      "inputs": [
        {
          "indexed": true,
          "internalType": "address",
          "name": "previousOwner",
          "type": "address"
        },
        {
          "indexed": true,
          "internalType": "address",
          "name": "newOwner",
          "type": "address"
        }
      ],
      "name": "OwnershipTransferred",
      "type": "event"
    },
    {
      "anonymous": false,
      "inputs": [
        {
          "indexed": true,
          "internalType": "uint8",
          "name": "tier",
          "type": "uint8"
        }
      ],
      "name": "TierBadgeUpdated",
      "type": "event"
    },
    {
      "inputs": [],
      "name": "owner",
      "outputs": [
        {
          "internalType": "address",
          "name": "",
          "type": "address"
        }
      ],
      "stateMutability": "view",
      "type": "function"
    },
    {
      "inputs": [],
      "name": "renounceOwnership",
      "outputs": [],
      "stateMutability": "nonpayable",
      "type": "function"
    },
    {
      "inputs": [
        {
          "internalType": "uint8",
          "name": "tier",
          "type": "uint8"
        },
        {
          "internalType": "string",
          "name": "name",
          "type": "string"
        },
        {
          "internalType": "string",
          "name": "bg",
          "type": "string"
        },
        {
          "internalType": "string",
          "name": "tc",
          "type": "string"
        },
        {
          "internalType": "uint16",
          "name": "width",
          "type": "uint16"
        }
      ],
      "name": "setTierBadge",
      "outputs": [],
      "stateMutability": "nonpayable",
      "type": "function"
    },
    {
      "inputs": [
        {
          "components": [
            {
              "internalType": "uint256",
              "name": "tokenId",
              "type": "uint256"
            },
            {
              "internalType": "address",
              "name": "supporter",
              "type": "address"
            },
            {
              "internalType": "string",
              "name": "projectName",
              "type": "string"
            },
            {
              "internalType": "string",
              "name": "logo",
              "type": "string"
            },
            {
              "internalType": "uint64",
              "name": "startedAt",
              "type": "uint64"
            },
            {
              "internalType": "uint64",
              "name": "expiresAt",
              "type": "uint64"
            },
            {
              "internalType": "uint64",
              "name": "createdAt",
              "type": "uint64"
            },
            {
              "internalType": "uint64",
              "name": "saleStart",
              "type": "uint64"
            },
            {
              "internalType": "uint8",
              "name": "displayTier",
              "type": "uint8"
            },
            {
              "internalType": "bool",
              "name": "active",
              "type": "bool"
            },
            {
              "components": [
                {
                  "internalType": "uint8",
                  "name": "tier",
                  "type": "uint8"
                },
                {
                  "internalType": "uint64",
                  "name": "startedAt",
                  "type": "uint64"
                }
              ],
              "internalType": "struct TierPeriod[]",
              "name": "tierPeriods",
              "type": "tuple[]"
            }
          ],
          "internalType": "struct ISupportRenderer.TokenData",
          "name": "data",
          "type": "tuple"
        }
      ],
      "name": "tokenURI",
      "outputs": [
        {
          "internalType": "string",
          "name": "",
          "type": "string"
        }
      ],
      "stateMutability": "view",
      "type": "function"
    },
    {
      "inputs": [
        {
          "internalType": "address",
          "name": "newOwner",
          "type": "address"
        }
      ],
      "name": "transferOwnership",
      "outputs": [],
      "stateMutability": "nonpayable",
      "type": "function"
    }
  ],
  "bytecode": "0x608080604052346071573315605e575f8054336001600160a01b0319821681178355916001600160a01b03909116907f8be0079c531659141344cd1fd0a4f28419497f9722a3daafe3b4186f6b6457e09080a3611dc390816100768239f35b631e4fbdf760e01b5f525f60045260245ffd5b5f80fdfe60806040526004361015610011575f80fd5b5f3560e01c8063485fb0971461103b578063715018a614610fe45780638738057b146101045780638da5cb5b146100dd5763f2fde38b14610050575f80fd5b346100d95760203660031901126100d9576004356001600160a01b038116908190036100d95761007e6115e7565b80156100c6575f80546001600160a01b03198116831782556001600160a01b0316907f8be0079c531659141344cd1fd0a4f28419497f9722a3daafe3b4186f6b6457e09080a3005b631e4fbdf760e01b5f525f60045260245ffd5b5f80fd5b346100d9575f3660031901126100d9575f546040516001600160a01b039091168152602090f35b346100d95760203660031901126100d9576004356001600160401b0381116100d9578060040161016060031983360301126100d9576044820161015161014a82846115b5565b3691611547565b604051918151820160208401809362900094601f5265c0000000a6ab6008527f2671756f743b26616d703b262333393b266c743b2667743b00000000000000005f525b828103610fa357505f8152848103601f190185526020016040525060c485016101bc8161160d565b60e48701906001600160401b03806101d38461160d565b16911610610f9a57620151806001600160401b0361020681936102006101fa60019761160d565b9161160d565b90611621565b160416016001600160401b038111610c7557905b61012486019361022985611641565b15610f6a576001600160401b036102426084890161160d565b164203428111610c75576201518090045b60248801356001600160a01b03811681036100d95761027190611822565b9060ff6101048a01956102838761164e565b9061029160648d018c6115b5565b9390921692835f52600160205260405f20936102ad855461157d565b15610ee157506102bf60018501611a78565b936102cc60028201611a78565b61ffff60036102da84611a78565b93015416945b8561019003936101908511610c75576019198701878111610c755760011c601a019485601a11610c755760011c6103169061165c565b966103209061165c565b9461032a9061165c565b9181604051998a97602089019a7f3c67207472616e73666f726d3d227472616e736c6174652800000000000000008c528051602081920160388c015e6616189c1a14911f60c91b6038918b01918201526c1e3932b1ba103bb4b23a341e9160991b603f8201528151918290602001604c83015e01603801601481017f22206865696768743d223332222072783d2233222066696c6c3d220000000000905281516020819301602f83015e01601401916211179f60e91b601b840152601e83017f3c67207472616e73666f726d3d227472616e736c61746528332c3329223e00009052603c83013701601b0160218101631e17b39f60e11b9052681e3a32bc3a103c1e9160b91b602582015281516020819301602e83015e01602101600d81017f2220793d2232302220746578742d616e63686f723d226d6964646c652220666f9052602d81017f6e742d66616d696c793d226d6f6e6f73706163652220666f6e742d73697a653d9052604d81017f2231322220666f6e742d7765696768743d22626f6c64222066696c6c3d220000905281516020819301606b83015e01600d0161111f60f11b605e82015281516020819301606083015e01605e0160028101661e17ba32bc3a1f60c91b905260098101631e17b39f60e11b90520360020160141981018452600b0161051c908461150b565b6001600160401b031661052e9061165c565b916105388a611641565b15610eb65761056760405161054e60408261150b565b600681526541435449564560d01b60208201529461165c565b94604051998a97602089017f3c73766720786d6c6e733d22687474703a2f2f7777772e77332e6f72672f32309052604089017f30302f737667222076696577426f783d223020302034303020343030223e3c729052606089017f6563742077696474683d2234303022206865696768743d22343030222066696c9052608089017f6c3d227768697465222f3e3c7374796c653e2e6c7b666f6e742d66616d696c79905260a089017f3a6d6f6e6f73706163653b66696c6c3a233842384639413b746578742d747261905260c089017f6e73666f726d3a7570706572636173653b666f6e742d73697a653a313070783b905260e089017f666f6e742d7765696768743a3730307d3c2f7374796c653e3c7465787420636c90527530b9b99e913611103c1e91191811103c9e911998111f60511b6101008a01525180916101168a015e7f20535550504f52544552533c2f746578743e3c7465787420636c6173733d226c610116918901918201527f2220783d223338302220793d2233302220746578742d616e63686f723d22656e6101368201526232111f60e91b610156820152815191829060200161015983015e01610116019060438201661e17ba32bc3a1f60c91b9052518092604a83015e01604301600781017f3c7465787420636c6173733d226c2220783d2232302220793d22333830223e4490526027810162020ac960ed1b905281516020819301602a83015e01600701602381017f3c2f746578743e3c7465787420636c6173733d226c2220783d223230302220799052604381017f3d223338302220746578742d616e63686f723d226d6964646c65223e00000000905281516020819301605f83015e01602301603c81017f3c2f746578743e3c7465787420636c6173733d226c2220783d223338302220799052605c81017f3d223338302220746578742d616e63686f723d22656e64223e00000000000000905281516020819301607583015e01603c01603981016d221e17ba32bc3a1f1e17b9bb339f60911b90520360390160111981018452600e01610868908461150b565b61087290856115b5565b369061087d92611547565b6040516020810191827b5c75303030303031323334353637383961626364656662746e00667260155281518201915b828103610e2057505f8152828103601f19018352602001604052506108e36108dd6108d7883561165c565b95611b18565b95611641565b15610df1576109166040516108f960408261150b565b600681526541637469766560d01b6020820152939795949761164e565b60ff166109229061165c565b61092e6084870161160d565b6001600160401b03166109409061165c565b9360a487019461094f8661160d565b6001600160401b03166109619061165c565b90604051938493602085017f7b2274726169745f74797065223a22537461747573222c2276616c7565223a22905280516020819201604087015e840162089f4b60ea1b6040820152604381017f7b2274726169745f74797065223a2254696572222c2276616c7565223a000000905281516020819301606083015e0160400160208101611f4b60f21b9052602281017f7b2274726169745f74797065223a2253746172746564204174222c2264697370905260428101783630bcafba3cb832911d113230ba329116113b30b63ab2911d60391b905281516020819301605b83015e01602001603b8101611f4b60f21b9052603d81017f7b2274726169745f74797065223a2245787069726573204174222c22646973709052605d8101783630bcafba3cb832911d113230ba329116113b30b63ab2911d60391b905281516020819301607683015e01603b01603b8101607d60f81b905203603b01601e1981018252600101610acf908261150b565b935f9561014401945b610ae286896117c9565b9050871015610c9c57600187019081881180610c7557898891610b0583836117c9565b8610159050610c8957506020610b2a610b228694610b30946117c9565b5f97916117fe565b0161160d565b925b610c7557610b3f9061165c565b9188610b4b898c6117c9565b610b5592916117fe565b610b5e9061164e565b60ff16610b6a9061165c565b9089610b768a8d6117c9565b610b8092916117fe565b602001610b8c9061160d565b610b9591611621565b6001600160401b03166201518090046001600160401b0316610bb69061165c565b9060405193838594516020819201602087015e8401602081017f2c7b2274726169745f74797065223a225469657220506572696f642000000000905281516020819301603c83015e016020016f01116113b30b63ab2911d112a34b2b9160851b601c82015281516020819301602c83015e01601c016010810161016160f51b905281516020819301601283015e016010016264227d60e81b600282015203600201601c1981018252600301610c6b908261150b565b9560010195610ad8565b634e487b7160e01b5f52601160045260245ffd5b93915050610c968761160d565b92610b32565b6010610d7394936025602060029485828f98602982610d6e9b6040519d8e9a683d913730b6b2911d1160b91b848d0152518091858d015e8a019061202360f01b84830152805192839101602b83015e0101907f222c22696d616765223a22646174613a696d6167652f7376672b786d6c3b626184830152641cd94d8d0b60da1b6022830152805192839101602783015e0101906f222c2261747472696275746573223a5b60801b84830152805192839101603583015e0101615d7d60f01b838201520301601d1981018452018261150b565b611b18565b60408051610dc6603d826020808201967f646174613a6170706c69636174696f6e2f6a736f6e3b6261736536342c00000088528051918291018484015e81015f838201520301601f19810183528261150b565b8151928391602083525180918160208501528484015e5f828201840152601f01601f19168101030190f35b610916604051610e0260408261150b565b6007815266115e1c1a5c995960ca1b6020820152939795949761164e565b6001019081519060ff8216916020831015610e7f576137006001841b1615610e5d57506008600292605c83530151600182015301915b91906108ac565b6006925080600f809260041c1651601d531651601e5360195181520191610e56565b506b1000000000000004000000006001831b1615610eaa57600291605c825360018201530191610e56565b60019181530191610e56565b610567604051610ec760408261150b565b60078152661156141254915160ca1b60208201529461165c565b93506040936020610f6160258751610ef9898261150b565b60048152630467070760e31b8482015297610f2f8151610f19838261150b565b600481526311b3333360e11b868201529561165c565b90519384916402a24a2a9160dd1b828401528051918291018484015e81015f838201520301601f19810183528261150b565b90605a946102e0565b6001600160401b036201518081610f92610f8660a48c0161160d565b61020060848d0161160d565b160416610253565b50505f9061021a565b6001019060ff82511667500000c4000000006001821b1615610fd75751601f8160f81c1651825260fd1c01915b9190610194565b9060019181530191610fd0565b346100d9575f3660031901126100d957610ffc6115e7565b5f80546001600160a01b0319811682556001600160a01b03167f8be0079c531659141344cd1fd0a4f28419497f9722a3daafe3b4186f6b6457e08280a3005b346100d95760a03660031901126100d95760043560ff81168091036100d9576024356001600160401b0381116100d9576110799036906004016114de565b6044356001600160401b0381116100d9576110989036906004016114de565b9190926064356001600160401b0381116100d9576110ba9036906004016114de565b926084359561ffff87168097036100d9576110d36115e7565b861580156114d3575b6114c45760405195608087018781106001600160401b03821117611334576111289561111994611110926040523691611547565b87523691611547565b92602085019384523691611547565b906040830191825260608301938452845f52600160205260405f2092518051906001600160401b038211611334578190611162865461157d565b601f8111611474575b50602090601f8311600114611411575f92611406575b50508160011b915f199060031b1c19161783555b51805160018401916001600160401b0382116113345781906111b7845461157d565b601f81116113b6575b50602090601f8311600114611353575f92611348575b50508160011b915f199060031b1c19161790555b51805160028301916001600160401b0382116113345761120a835461157d565b601f81116112ef575b50602090601f83116001146112865791806003949261ffff96945f9261127b575b50508160011b915f1990861b1c19161790555b0191511661ffff198254161790557fc88f825974e7c973d4b293bcf36f07e89dce54587c49a695df3fb7ed8ab153ca5f80a2005b015190508880611234565b90601f19831691845f52815f20925f5b8181106112d7575092600192859261ffff989660039896106112c0575b505050811b019055611247565b01515f1983881b60f8161c191690558880806112b3565b92936020600181928786015181550195019301611296565b835f5260205f20601f840160051c8101916020851061132a575b601f0160051c01905b81811061131f5750611213565b5f8155600101611312565b9091508190611309565b634e487b7160e01b5f52604160045260245ffd5b0151905087806111d6565b5f8581528281209350601f198516905b81811061139e5750908460019594939210611386575b505050811b0190556111ea565b01515f1960f88460031b161c19169055878080611379565b92936020600181928786015181550195019301611363565b909150835f5260205f20601f840160051c810191602085106113fc575b90601f859493920160051c01905b8181106113ee57506111c0565b5f81558493506001016113e1565b90915081906113d3565b015190508780611181565b5f8781528281209350601f198516905b81811061145c5750908460019594939210611444575b505050811b018355611195565b01515f1960f88460031b161c19169055878080611437565b92936020600181928786015181550195019301611421565b909150855f5260205f20601f840160051c810191602085106114ba575b90601f859493920160051c01905b8181106114ac575061116b565b5f815584935060010161149f565b9091508190611491565b63a6067cbd60e01b5f5260045ffd5b5061019087116110dc565b9181601f840112156100d9578235916001600160401b0383116100d957602083818601950101116100d957565b90601f801991011681019081106001600160401b0382111761133457604052565b6001600160401b03811161133457601f01601f191660200190565b9291926115538261152c565b91611561604051938461150b565b8294818452818301116100d9578281602093845f960137010152565b90600182811c921680156115ab575b602083101461159757565b634e487b7160e01b5f52602260045260245ffd5b91607f169161158c565b903590601e19813603018212156100d957018035906001600160401b0382116100d9576020019181360383136100d957565b5f546001600160a01b031633036115fa57565b63118cdaa760e01b5f523360045260245ffd5b356001600160401b03811681036100d95790565b906001600160401b03809116911603906001600160401b038211610c7557565b3580151581036100d95790565b3560ff811681036100d95790565b805f9172184f03e93ff9f4daa797ed6e38ed64bf6a1f0160401b8210156117a6575b806d04ee2d6d415b85acef8100000000600a92101561178b575b662386f26fc10000811015611777575b6305f5e100811015611766575b612710811015611757575b6064811015611749575b101561173e575b600a602160018401936116e38561152c565b946116f1604051968761150b565b808652611700601f199161152c565b013660208701378401015b5f1901916f181899199a1a9b1b9c1cb0b131b232b360811b8282061a835304801561173957600a909161170b565b505090565b6001909101906116d1565b6064600291049301926116ca565b612710600491049301926116c0565b6305f5e100600891049301926116b5565b662386f26fc10000601091049301926116a8565b6d04ee2d6d415b85acef810000000060209104930192611698565b506040915072184f03e93ff9f4daa797ed6e38ed64bf6a1f0160401b810461167e565b903590601e19813603018212156100d957018035906001600160401b0382116100d957602001918160061b360383136100d957565b919081101561180e5760061b0190565b634e487b7160e01b5f52603260045260245ffd5b6e0c2e074ec69a0dfb2997ba6c7d2e1e3b15611a6f5760405161184660608261150b565b602881526020810190604036833760286001600160a01b038416815b611a1757505051902060405160208101917f91d1777781884d03a6757a803996e38de2a42967fb37eeaca72729271025a9e283526040820152604081526118aa60608261150b565b519020604051630178b8bf60e01b81526004810182905291906020836024816e0c2e074ec69a0dfb2997ba6c7d2e1e5afa5f93816119d3575b506118f7575b506118f49150611c5e565b90565b6001600160a01b0383169283151590816119c8575b50156118e9575f9060246040518095819363691f343160e01b835260048301525afa5f928161194d575b50611942575b816118e9565b81511561193c575090565b9092503d805f833e61195f818361150b565b8101906020818303126100d9578051906001600160401b0382116100d9570181601f820112156100d9578051906119958261152c565b926119a3604051948561150b565b828452602083830101116100d957815f9260208093018386015e83010152915f611936565b90503b15155f61190c565b9093506020813d602011611a0f575b816119ef6020938361150b565b810103126100d957516001600160a01b03811681036100d957925f6118e3565b3d91506119e2565b600f8116600a811015611a6557611a3960305b6001600160f81b031992611d48565b60f81b165f1a611a4c5f19840185611c4d565b535f199091019060041c60016001609c1b031681611862565b611a396057611a2a565b6118f490611c5e565b9060405191825f825492611a8b8461157d565b8084529360018116908115611af65750600114611ab2575b50611ab09250038361150b565b565b90505f9291925260205f20905f915b818310611ada575050906020611ab0928201015f611aa3565b6020919350806001915483858901015201910190918492611ac1565b905060209250611ab094915060ff191682840152151560051b8201015f611aa3565b90815115611c3757815160028101809111610c755760039004600281901b91906001600160fe1b03811603610c7557604051917f4142434445464748494a4b4c4d4e4f505152535455565758595a616263646566601f527f6768696a6b6c6d6e6f707172737475767778797a303132333435363738392b2f603f52602083018480518101602081018051915f82525b808910611bfb5750602095969750906003929152510680600114611be657600214611bd9575b50808452830101604052565b603d905f1901535f611bcd565b50603d90815f1982015360011901535f611bcd565b939760036004910198603f8a51818160121c165183538181600c1c16516001840153818160061c16516002840153165160038201530193611ba7565b9050604051611c4760208261150b565b5f815290565b90815181101561180e570160200190565b9060405191611c6e60408461150b565b600d835260208084019036823783511561180e576030905382516001101561180e57607860218401536001600160a01b0316915f5b60048110611d1b575080516006101561180e57602e602682015380516007101561180e57602e602782015380516008101561180e57602e60288201535f5b60048110611cee57509150565b80611d05600f8660019460021b600c031c16611d5c565b5f1a611d148260090185611c4d565b5301611ce1565b80611d32600f8660019460021b609c031c16611d5c565b5f1a611d418260020185611c4d565b5301611ca3565b9060ff8091169116019060ff8211610c7557565b600a60ff82161015611d8357611d7c60306001600160f81b031992611d48565b60f81b1690565b611d7c6037611a2a56fea2646970667358221220d62ca6bd2ffaecc29dfb0a18f8507ff4dd46036794600bdb070b3f9d6f999efe64736f6c634300081c0033",
  "linkReferences": {},
  "deployedLinkReferences": {},
  "immutableReferences": {},
  "inputSourceName": "project/contracts/renderers/SupportRenderer.sol",
  "buildInfoId": "solc-0_8_28-4bdeb5eeb5171f64127c1613c1689ae2a1e94298"
}